:080000000C9446000C94000072
:100008000C9400000C9400000C9400000C94000068
:100018000C9400000C9400000C9400000C94000058
:100028000C9400000C9400000C9400000C94000048
:100038000C9400000C9400000C9400000C94000038
:100048000C9400000C9400000C9400000C94000028
:100058000C9400000C9400000C9400000C94000018
:100068000C9400000C9400000C9400000C94000008
:100078000C9400000C9400000C9400000C940000F8
:100088000C940000F894EE27ECBBF1E0F5BFE5BF57
:10009800E0936C008DE0A2E0BB27ED938A95E9F729
:1000A80080E090E1A0E0B1E0ED930197E9F7EFEF90
:1000B800EDBFE0E1EEBFC0E0D5E00C946300EFEFE8
:1000C800EABBE0E0EBBBEFEFE7BBE0E0E8BBEFEF5C
:1000D800E4BBE1E0E5BBEFEFE1BBE0E0E2BBEFEF63
:1000E800E2B9E0E0E3B9EFEFE0936100E0E0E0932C
:1000F8006200EFEFE0936400E0E0E0936500FFCF7B
:00000001FF
